:020000040800F2
:10000000FCFF002031150000291500002915000013
:1000100029150000291500002915000029150000E8
:1000200029150000291500002915000029150000D8
:1000300029150000291500002915000029150000C8
:1000400029150000291500002915000029150000B8
:1000500029150000291500002915000029150000A8
:100060002915000029150000291500002915000098
:100070002915000029150000291500002915000088
:100080002915000029150000291500002915000078
:100090002915000029150000291500002915000068
:1000A0002915000029150000291500002915000058
:1000B0002915000029150000291500002915000048
:1000C0002915000029150000291500002915000038
:1000D0002915000029150000291500002915000028
:1000E0002915000029150000291500002915000018
:1000F0002915000029150000291500002915000008
:1001000029150000291500002915000029150000F7
:1001100029150000291500002915000029150000E7
:1001200029150000291500002915000029150000D7
:1001300029150000291500002915000029150000C7
:1001400029150000291500002915000029150000B7
:1001500083B0CDF800E000F0FF031A09104603F069
:100160000F02134614E0194A02921FE0184A029245
:100170001CE0184A029219E0174A029216E0174A48
:10018000029213E0164A029210E0164A02920DE023
:100190000028E8D00128E9D00228EAD00328EBD0D3
:1001A0000428ECD00528EDD00628EED0012212B2AA
:1001B0009A40ADF8042002980A46BDF8041000F0F9
:1001C00085FADDF800E003B0704700BF0008014089
:1001D000000C0140001001400014014000180140D3
:1001E000001C01400020014001480068704700BF2A
:1001F0002800002081B0CDF800E0012252B23E4933
:100200000A6000F268010B686FF0006103EA010206
:10021000144603F00061C90E0B4602F00041B1F133
:10022000004F02D135490A6801E035490A6804F4F3
:100230007021090C0E464FF6FF7104EA01010D46CC
:1002400004F44011B1F5401F0DD16FF0706102EA66
:1002500001010E462A490A686FF070610A40284978
:100260000A60324616E004F48011B1F5801F09D10E
:100270004FF00301B140C94302EA010141F070614E
:100280000A4607E0610D090105FA01F1C9430A4078
:1002900042F070622BB1610D090105FA01F10A43C8
:1002A000FFE704F00041B1F1004F02D113490A60A9
:1002B00001E013490A6040F2000A81464FEA8A01D0
:1002C00009EB01010968B1F1FF3F10D009F13401D8
:1002D0004FEA8A03C91809680A4609EB030109684D
:1002E00008461146FFF734FF0AF1010AE6E7DDF898
:1002F00000E001B0704700BF000342421C00014013
:100300000400014081B0194900EA010108460022B9
:100310000EE0042022E0082020E010201EE0202033
:100320001CE040201AE0802018E040F2001015E0A8
:100330000F498842EDD00F498842ECD00E498842DF
:10034000EBD00E498842EAD00D498842E9D00D49E8
:100350008842E8D00C498842E7D010460B4909682A
:1003600041EA000209490A6001B0704700FCFFFF42
:1003700000080140000C0140001001400014014041
:1003800000180140001C01400020014018100240EC
:1003900082B0CDF800E0034619460191FFF724FF33
:1003A00040F2E83100FB01F201990A601F49097827
:1003B000C1F30311C8B21E4909180878C0B21A1D4A
:1003C0001968C140116019490988C1F3022188B236
:1003D000174909180878C0B203F20802191D096804
:1003E000C140116011490988C1F3C22188B2104986
:1003F00009180878C0B203F20C02191D0968C1403F
:1004000011600A490988C1F3813188B20949091884
:100410000978C8B203F2100203F20C010968B1FBBB
:10042000F0F11160DDF800E002B070470410024006
:1004300038180000B214000089B0CDF800E08346FF
:1004400098B28C46BDF824100A9E04ACADF8041096
:10045000ADF808002046FFF79BFFBDF80800BDF887
:100460000410644CA34512D101256DB2624C256085
:10047000624D634C2560634D634C2560634D644C55
:100480002560644D644C2560079C039456E0634CE2
:10049000A34512D101256DB2614C2560614D584CC8
:1004A0002560614D584C2560604D594C2560604D6C
:1004B000594C2560069C039440E05E4CA34512D144
:1004C00001256DB25C4C25605C4D4D4C25605C4D4A
:1004D0004D4C25605B4D4E4C25605B4D4E4C256070
:1004E000069C03942AE0594CA34512D101256DB214
:1004F000574C2560574D424C2560574D424C256066
:10050000564D434C2560564D434C2560069C039444
:1005100014E0544CA34511D101256DB2524C256015
:10052000524D374C2560524D374C2560514D384C5B
:100530002560514D384C2560069C0394ADF804109D
:10054000ADF808003046FFF755FEBDF80800BDF8CD
:1005500004100BF1100500242C600BF110052C6821
:100560000C432C600BF10C0500242C6018B140F4F6
:10057000806080B2FFE70BF10C052C6804432C600F
:100580000BF10C060125346865F34D3434600BF132
:100590000C060125346865F3C30434600BF10C06C6
:1005A0000125346865F3820434600BF114050024DE
:1005B0002C60039D192465434FEA8C04B5FBF4F7C6
:1005C0006424B7FBF4F42601350964246C433C1B16
:1005D000240104F232056424B5FBF4F404F00F04A2
:1005E00046EA04040BF10805A4B22C60DDF800E033
:1005F00009B07047003801403803424251090000F9
:100600002C000020D50900003000002089090000DE
:1006100034000020A1090000380000200044004000
:10062000C40342426D090000C1080000D90800005F
:10063000D90A000000480040C803424219090000DE
:10064000990A0000490B0000190B0000004C004003
:10065000CC03424235090000310B0000ED090000D7
:10066000390A000000500040D0034242B90900009E
:10067000810A0000690A0000510A000081B0026886
:10068000C2F3401101B9FAE7011D096888B201B04F
:100690007047FFFF81B00168C1F3401001B070479F
:1006A00081B0ADF800100146BDF800000B68C3F33F
:1006B000C01202B9FAE70A1D106001B07047FFFFCF
:1006C00081B00168C1F3801001B0704781B0CDF8EE
:1006D00000E08CB21546774B00EA03031E4618462D
:1006E000FFF710FEB4F1FF0F0CD1734B9D4203D105
:1006F0004FF033333360D9E0422D03D14FF0443310
:100700003360D3E04FF6FF739C4214D16A4B9D4295
:1007100007D14FF033333360341D4FF03333236050
:10072000C4E0422D07D14FF044333360341D4FF005
:1007300044332360BAE00021002005F001030BB12F
:1007400000211DE005F0020333B105F4C0730BB1C5
:10075000082100E0042113E005F0040333B105F0A3
:1007600020030BB1042100E0002109E005F008039B
:1007700033B105F020030BB10C2100E00821FFE7A5
:100780004E4B05EA03030BB1032009E005F40073A7
:100790000BB1022004E005F480630BB10120FFE7F8
:1007A00005F00C030BB10143FFE704F0FF039BB21C
:1007B000002B3BD0376800201FFA84F832462E46C3
:1007C00008282CD24FF0010303FA00F408EA0403CE
:1007D000A34222D185004FF00F03AB40DB4307EA71
:1007E000030401FA05F344EA03031D4606F481738A
:1007F000B3F5817F05D102F214044FF00103834069
:10080000236006F08203822B05D102F210044FF020
:100810000103834023602F46FFE7401CD0E71760A9
:100820001FFA88F00F463146164602E00F46294669
:10083000A0B2B0F1FF0F39D9331DD3F800800022E8
:10084000082A30D202F208044FF0010303FA04F43C
:1008500000EA0403A34224D195004FF00F03AB40FC
:10086000DB4308EA030807FA05F348EA030801F442
:100870008173B3F5817F07D106F2140502F20804F3
:100880004FF00103A3402B6001F08203822B07D1BC
:1008900006F2100502F208044FF00103A3402B609A
:1008A000FFE7521CCCE7331DC3F80080DDF800E001
:1008B00001B0704700FCFFFF1400080000080800AA
:1008C00081B0CDF800E00348FFF7D8FEDDF800E086
:1008D00001B070470044004081B0CDF800E003480B
:1008E000FFF7D8FEDDF800E001B07047004400409B
:1008F00081B0CDF800E0019D2C4610B408B493B24D
:100900008AB201460348FFF797FD02B0DDF800E028
:1009100001B070470038014081B0CDF800E081B2ED
:100920000348FFF7BDFEDDF800E001B0704700BFEF
:100930000048004081B0CDF800E081B20348FFF7E5
:10094000AFFEDDF800E001B0704700BF004C004092
:1009500081B0CDF800E081B20348FFF7A1FEDDF8D9
:1009600000E001B0704700BF0038014081B0CDF811
:1009700000E081B20348FFF793FEDDF800E001B02C
:10098000704700BF0044004081B0CDF800E003484C
:10099000FFF780FEDDF800E001B07047003801404D
:1009A00081B0CDF800E00348FFF78AFEDDF800E0F3
:1009B00001B070470038014081B0CDF800E081B24D
:1009C0000348FFF76DFEDDF800E001B0704700BF9F
:1009D0000050004081B0CDF800E00348FFF74EFE24
:1009E000DDF800E001B070470038014081B0CDF87B
:1009F00000E00348FFF74EFEDDF800E001B070476D
:100A0000004C004081B0CDF800E04FF0420289B2C6
:100A1000FFF75CFEDDF800E001B0704781B0CDF873
:100A200000E0044A89B2FFF751FEDDF800E001B0B2
:100A3000704700BF1400080081B0CDF800E0034803
:100A4000FFF73EFEDDF800E001B07047004C0040CB
:100A500081B0CDF800E00348FFF732FEDDF800E09A
:100A600001B070470050004081B0CDF800E003486D
:100A7000FFF710FEDDF800E001B0704700500040C5
:100A800081B0CDF800E00348FFF7F8FDDDF800E0A5
:100A900001B070470050004081B0CDF800E003483D
:100AA000FFF7ECFDDDF800E001B0704700480040C2
:100AB00081B0CDF800E0019D2C4610B408B493B28B
:100AC0008AB201460348FFF7B7FC02B0DDF800E048
:100AD00001B070470048004081B0CDF800E0034805
:100AE000FFF7EEFDDDF800E001B070470044004084
:100AF00081B0CDF800E0019D2C4610B408B493B24B
:100B00008AB201460348FFF797FC02B0DDF800E027
:100B100001B070470044004081B0CDF800E00348C8
:100B2000FFF7CEFDDDF800E001B07047004800405F
:100B300081B0CDF800E00348FFF7A0FDDDF800E04C
:100B400001B07047004C004081B0CDF800E0034890
:100B5000FFF7A0FDDDF800E001B07047004800405D
:100B600001490860704700BFB08122420149086016
:100B7000704700BF9881224201490860704700BF5A
:100B8000B081224201490860704700BFAC01224297
:100B900001490860704700BFB00122420149086066
:100BA000704700BF9481224281B0CDF800E0044C30
:100BB0002468A047C0B2DDF800E001B0704700BF74
:100BC0001000002081B0CDF800E0044C2468A0475C
:100BD000C0B2DDF800E001B0704700BF180000208F
:100BE00081B0CDF800E00178CCB2A0B2034C24680B
:100BF000A0470020DDF800E001B070470C000020A5
:100C000001490860704700BF98812142014908608E
:100C1000704700BF9C81214201490860704700BFB6
:100C2000A801224281B0CDF800E0A9E0012905D158
:100C300040F210016548FFF7E5FE04E040F21001C4
:100C40006248FFF7EBFEBBE0012905D140F2040149
:100C50005F48FFF7D7FE04E040F204015C48FFF76D
:100C6000DDFEADE0012905D142F200015948FFF750
:100C7000C9FE04E042F200015648FFF7CFFE9FE0B4
:100C8000012905D140F200415148FFF7BBFE04E0C5
:100C900040F200414E48FFF7C1FE91E0012905D125
:100CA00040F600014A48FFF7ADFE04E040F60001BF
:100CB0004748FFF7B3FE83E0012905D141F2000167
:100CC0004348FFF79FFE04E041F200014048FFF770
:100CD000A5FE75E0012905D140F201013B48FFF76F
:100CE00091FE04E040F201013848FFF797FE67E00B
:100CF000012905D140F200413648FFF783FE04E0A8
:100D000040F200413348FFF789FE59E0012905D13F
:100D100040F200212F48FFF775FE04E040F2002169
:100D20002C48FFF77BFE4BE0012905D140F2001172
:100D30002848FFF767FE04E040F200112548FFF75E
:100D40006DFE3DE0012905D140F240012248FFF748
:100D500059FE04E040F240011F48FFF75FFE2FE01C
:100D6000012905D140F280011B48FFF74BFE04E04A
:100D700040F280011848FFF751FE21E0012020E0F9
:100D800000283FF453AF01283FF45EAF02283FF440
:100D900069AF03283FF474AF04283FF47FAF052800
:100DA0003FF48AAF06283FF495AF0728A0D0082863
:100DB000ACD00928B8D00A28C4D00B28D0D0DDE7A1
:100DC0000020DDF800E001B0704700BF00080140DE
:100DD0000010014000140140000C014081B0CDF82A
:100DE00000E0A9E0012905D140F220016548FFF7A4
:100DF00009FE04E040F220016248FFF70FFEBBE06D
:100E0000012905D140F208015F48FFF7FBFD04E02E
:100E100040F208015C48FFF701FEADE0012905D171
:100E200044F200015948FFF7EDFD04E044F20001EF
:100E30005648FFF7F3FD9FE0012905D140F200413C
:100E40005148FFF7DFFD04E040F200414E48FFF754
:100E5000E5FD91E0012905D140F600014A48FFF780
:100E6000D1FD04E040F600014748FFF7D7FD83E0DD
:100E7000012905D141F200014348FFF7C3FD04E019
:100E800041F200014048FFF7C9FD75E0012905D195
:100E900041F200013D48FFF7B5FD04E041F20001D9
:100EA0003A48FFF7BBFD67E0012905D140F6000194
:100EB0003648FFF7A7FD04E040F600013348FFF78E
:100EC000ADFD59E0012905D140F240012F48FFF75F
:100ED00099FD04E040F240012C48FFF79FFD4BE0F4
:100EE000012905D140F220012848FFF78BFD04E0DD
:100EF00040F220012548FFF791FD3DE0012905D191
:100F000040F240012248FFF77DFD04E040F240013D
:100F10001F48FFF783FD2FE0012905D140F2800132
:100F20001B48FFF76FFD04E040F280011848FFF70F
:100F300075FD21E0012020E000283FF453AF012897
:100F40003FF45EAF02283FF469AF03283FF474AF6B
:100F500004283FF47FAF05283FF48AAF06283FF40A
:100F600095AF0728A0D00828ACD00928B8D00A2807
:100F7000C4D00B28D0D0DDE70020DDF800E001B0C0
:100F8000704700BF000801400010014000140140FC
:100F9000000C0140026806490A6000F208010A6874
:100FA00004490A60011D0A6803490A60704700BFCE
:100FB0001C000020200000202400002001490860BF
:100FC000704700BFB481224201490860704700BFEA
:100FD0008801224201490860704700BF9001214208
:100FE000026806490A60011D0A6805490A6000F2A4
:100FF00008010A6803490A60704700BF1400002016
:10100000100000201800002081B0CDF800E0094950
:1010100002B440F2000340F2000240F20001FFF788
:1010200067FD01B0044A05490A600020DDF800E0D0
:1010300001B07047941600006D0900000C000020FC
:1010400081B0CDF800E0094902B440F2000340F25B
:10105000000240F20001FFF72BFD01B0044A0549F0
:101060000A600020DDF800E001B070476C17000056
:10107000190900000C00002081B0CDF800E00B4DF4
:1010800000F20C010C6800F208010B68011D0A68EF
:101090000168084691B29AB2A3B220B4FFF728FDC6
:1010A00001B00020DDF800E001B0704794160000A8
:1010B00081B0CDF800E00B4D00F20C010C6800F29D
:1010C00008010B68011D0A680168084691B29AB2CE
:1010D000A3B220B4FFF7ECFC01B00020DDF800E083
:1010E00001B070476C17000081B0CDF800E00949ED
:1010F00002B440F2000340F2000240F20001FFF7A8
:10110000F7FC01B0044A05490A600020DDF800E060
:1011100001B07047941600006D0900000C0000201B
:1011200081B0CDF800E0094902B440F2000340F27A
:10113000000240F20001FFF7DBFB01B0044A054961
:101140000A600020DDF800E001B0704700170000E1
:10115000510900000C00002001490860704700BFE1
:101160009881214201490860704700BFA081224256
:1011700001490860704700BFA4812242014908600C
:10118000704700BF9C81214201490860704700BF41
:10119000B881224201490860704700BF8C01224299
:1011A00001490860704700BF94012142014908606D
:1011B000704700BFB001224201490860704700BF7C
:1011C000AC01224201490860704700BFA8012242D9
:1011D00001490860704700BF800121420149086051
:1011E000704700BFA881224281B0CDF800E009E03D
:1011F0000846FFF75DFF0AE00846FFF73DFF06E0FF
:10120000012004E00028F3D00128F5D0F8E7DDF84C
:1012100000E001B07047FFFF81B0CDF800E05FFA59
:1012200081F95FFA82FA0FE05FFA8AF15FFA89F0DA
:10123000FFF7F8FC0DE05FFA8AF15FFA89F0FFF73B
:10124000CDFD06E0012004E00028EDD00128F2D019
:10125000F8E7DDF800E001B07047FFFF81B0CDF89E
:1012600000E0FFF7A1FCDDF800E001B07047FFFFF0
:1012700081B0CDF800E00120074C2468A047012090
:10128000064C2468A0470120054C2468A047DDF8DF
:1012900000E001B0704700BF1C00002020000020CB
:1012A0002400002081B0CDF800E0FFF78BFCDDF8D2
:1012B00000E001B07047FFFF83B0CDF800E00246C8
:1012C00010460D228DF808200A228DF809201FE013
:1012D000FFF786FC23E002782AB10190FFF780FC3B
:1012E0000198401CF7E71AE002782AB10190FFF755
:1012F00077FC0198401CF7E702AA1046FFF770FC44
:101300000DF109021046FFF76BFC08E0062007E02C
:101310000029DDD00129DED00229E5D0F6E7002042
:10132000DDF800E003B0704781B0CDF800E011E0D7
:101330000846FFF785FE16E00846FFF765FE12E057
:101340000846FFF7EDFE0EE00846FFF7CDFE0AE087
:10135000012008E00028EBD00128EDD02028EFD0B4
:101360003028F1D0F4E7DDF800E001B07047FFFF6E
:1013700081B0CDF800E003460846FFF731FE18467D
:10138000FFF708FEDDF800E001B0704781B01CF8FF
:10139000019B0BF8019BBBEB0A0FF8D101B0704722
:1013A00081B01548006840F00101134801601349FD
:1013B0001348016010480168124801400E4801605E
:1013C0000D4801686FF4802001400B4801600C4813
:1013D00001686FF4FE000140094801600648016899
:1013E0006FF0A0500140044801604FF00001064832
:1013F000016001B0704700BF001002400000FFF024
:1014000004100240FFFFF6FE2C10024081B04FF0A6
:1014100000094FF0000CBDEB0A0F04DCBDEB0B0F15
:1014200001DBD446EA464BF8049BBBEB0A0FFAD12A
:10143000BCEB0A0F05DDE246D9F800B00BF1040B56
:10144000F1E701B07047FFFF81B0CDF800E00C4933
:101450000C48FFF78DFFFFF70BFF0B480221FFF74A
:101460002BFF44F67F77C0F212077F1EFDD100BF2D
:1014700000BF00BF00BF00BFDDF800E001B0704753
:1014800064180000D81700000000002082B0CDF8DA
:1014900000E0FFF707FF012807D1FFF7DFFE8DF817
:1014A000040001A80021FFF707FFDDF800E002B00B
:1014B000704702040608FFFF81B0CDF800E000226B
:1014C00000210020FFF7A8FE002201210020FFF7E5
:1014D000A3FE002202210020FFF79EFE0C480146D9
:1014E0000020FFF781FE42F280512020FFF71CFF11
:1014F00044F67F77C0F212077F1EFDD100BF00BF08
:1015000000BF00BF00BFDDF800E001B0704700BFC2
:101510004818000081B002490248016001B07047DC
:10152000401901002800002081B0FEE701B070479B
:1015300000F00EF800F0DCF9FFF7ECFF00F098F98E
:10154000FFF7BAFFFFF780FFFFF7A0FFFCE7FEE71A
:1015500081B0CDF800E0464A464B474C47494BF630
:101560008030814206D94648006840F00201444874
:10157000016011E045F6C050814206D9404800683C
:1015800040F001013E48016006E03D4801686FF00F
:10159000070001403A480160FFF702FF3948036045
:1015A00039480460394802EA00013948016002F014
:1015B000010040B119463648006800F002000028DA
:1015C00000D1F8E700E0194602F4803040B10B4644
:1015D0002F48006800F40030002800D1F8E700E050
:1015E0000B4602F0805068B12948006840F08051F5
:1015F000274801602648006800F00050002800D10C
:10160000F8E7FFE702F0806078B12148006840F019
:1016100080611F48016011461A461D48006800F0AD
:101620000060002800D1F8E701E011461A4601F0F9
:10163000807070B11648006840F0807114480160F5
:1016400011461348006800F0007000B9F9E70A4637
:10165000FFE70C48006800F00C01900000F00C005F
:10166000814200D0F5E7DDF800E001B0704700BF2F
:101670008100010502841D0044060100401901009B
:1016800000200240041002402C100240FFFF0F0017
:10169000001002403500000036000000FFFFFFFF91
:1016A000000000000000000000000000000000003A
:1016B000000000000000000000000000000000002A
:1016C00000000000000000001808000018000000E2
:1016D000000000000000000000000000000000000A
:1016E00000000000000000000000000000000000FA
:1016F00000000000000000000000000008000008DA
:10170000090000000A000000FFFFFFFF00000000CA
:1017100000000000000000000000000000000000C9
:1017200000000000000000000000000000000000B9
:101730000000000018080000180000000000000071
:101740000000000000000000000000000000000099
:101750000000000000000000000000000000000089
:10176000000000000000000004000000380000003D
:1017700039000000FFFFFFFF000000000000000034
:101780000000000000000000000000000000000059
:101790000000000000000000000000000000000049
:1017A0001808000018000000000000000000000001
:1017B0000000000000000000000000000000000029
:1017C0000000000000000000000000000000000019
:1017D0000000000030001408D50F0000C90F000001
:1017E000BD0F0000C5110000B9110000AD110000CF
:1017F000D1110000DD110000711100006511000021
:10180000591100007D110000FFFFFFFFFFFFFFFFE8
:10181000FFFFFFFFFFFFFFFFFFFFFFFFFFFFFFFFD8
:10182000FFFFFFFFFFFFFFFFFFFFFFFFFFFFFFFFC8
:10183000FFFFFFFFFFFFFFFF0000000001020304A6
:1018400001020304060708098025000000000000CB
:101850000000000000000000496E697469616C6955
:101860007A65640019090000990A0000490B00001C
:1018700000B5DFF814B0DFF814A0DFF814C0FFF7EC
:1018800085FD00BD704700BF000000200C00002057
:1018900058180000FFFFFFFFFFFFFFFFFFFFFFFFE4
:1018A000FFFFFFFFFFFFFFFFFFFFFFFFFFFFFFFF48
:1018B000FFFFFFFFFFFFFFFFFFFFFFFFFFFFFFFF38
:1018C000FFFFFFFFFFFFFFFFFFFFFFFFFFFFFFFF28
:1018D000FFFFFFFFFFFFFFFFFFFFFFFFFFFFFFFF18
:1018E000FFFFFFFFFFFFFFFFFFFFFFFFFFFFFFFF08
:1018F00000B5DFF810B0DFF810A0FFF787FD00BDDE
:10190000704700BF000000203C000020FFFFFFFFE9
:00000001FF
