:100000009DEF08F00000000000EF00F0000000008D
:0A0010000000000000000000F3D71C
:0C001C005BB002D08B9801D08B881200E2
:0C0028005BB002D08D9201D08D821200DE
:0C0034005BB002D0899801D089881200CE
:0C0040005BB002D08B9601D08B861200C2
:0C004C005BB002D08B9601D08B861200B6
:0C0058005BB002D08A9201D08A821200B4
:0C0064005BB002D08B9A01D08B8A120096
:0C0070005BB002D08B9401D08B84120096
:10007C000F0121B302D00000FBD75BC01CFF1200A4
:0C008C005BB002D08B9201D08B8212007E
:0C0098005BB002D08A9001D08A80120078
:0C00A4005BB002D08B9A01D08B8A120056
:0C00B0005BB002D08B9C01D08B8C120046
:0C00BC005BB002D0899201D08982120052
:0C00C8005BB002D08B9601D08B8612003A
:0C00D4005BB002D08B9801D08B8812002A
:0C00E0005BB002D08B9601D08B86120022
:0C00EC005BB002D08B9801D08B88120012
:0C00F8005BB002D08B9801D08B88120006
:0C0104005BB002D08A9401D08A84120003
:0C0110005BB002D08B9601D08B861200F1
:0C011C005BB002D08B9A01D08B8A1200DD
:0C0128005BB002D08B9601D08B861200D9
:0C0134005BB002D08B9801D08B881200C9
:0C0140005BB002D08F9401D08F841200BD
:0C014C005BB002D08B9801D08B881200B1
:0C0158005BB002D0899401D089841200B1
:0C0164005BB002D08B9C01D08B8C120091
:0C0170005BB002D08B9E01D08B8E120081
:0C017C005BB002D08F9201D08F82120085
:0C0188005BB002D08F9001D08F8012007D
:0C0194005BB002D08D9601D08D86120069
:0C01A0005BB002D08D9401D08D84120061
:0E01AC00ACB202D00000FCD75BC0ADFF120069
:0C01BA005BB002D0899001D08980120057
:0C01C6005BB002D08D9001D08D80120043
:0C01D2005BB002D08B9001D08B8012003B
:0C01DE005BB002D08B9E01D08B8E120013
:1001EA007C0E456E000E466E5B0E476E000E486E24
:1001FA00FF0E416EFF0E426E000E436E000E446EFD
:10020A00FF0E496EFF0E4A6E000E4B6E000E4C6ECC
:10021A00FF0E396EFF0E3A6E000E3B6E000E3C6EFC
:10022A000F01218B900E226F98849892A4AA03D072
:08023A001DCF00F0FBD71200FC
:10024200AC0E456E010E466E5B0E476E000E486E9A
:10025200FF0E416EFF0E426E000E436E000E446EA4
:10026200FF0E496EFF0E4A6E000E4B6E000E4C6E74
:10027200FF0E396EFF0E3A6E000E3B6E000E3C6EA4
:10028200AC8A900EAB6E948E949C9EAA03D0AECF95
:0602920000F0FBD7120092
:10029800F250026EF29E0500FF6A0150FE6E005099
:0802A800FD6E02BEF28E120091
:1002B00055C058F056C059F057C05AF021D0CF0E53
:1002C000AF6EAC94BEDFD9D0670EAF6EAC94B9DF21
:1002D000D4D0CF0EAF6EAC84B4DFCFD0670EAF6E8C
:1002E000AC84AFDFCAD0440EAF6EAC84AADFC5D0F9
:1002F000220EAF6EAC84A5DFC0D0050E006EBFD05D
:1003000058C0F6FF59C0F7FF5AC0F8FF0900F5CFF3
:1003100001F00900F5CF02F00900F5CF03F0090064
:10032000F5CF04F0000E006E041808E10050031829
:1003300005E1120E021802E10150C00AC0E058C0E7
:10034000F6FF59C0F7FF5AC0F8FF0900F5CF01F0DA
:100350000900F5CF02F00900F5CF03F00900F5CF51
:1003600004F0000E006E041808E10050031805E1C7
:10037000250E021802E10150800AA6E058C0F6FFDF
:1003800059C0F7FF5AC0F8FF0900F5CF01F0090086
:10039000F5CF02F00900F5CF03F00900F5CF04F026
:1003A000000E006E041808E10050031805E14B0E22
:1003B000021802E10150000A8CE058C0F6FF59C053
:1003C000F7FF5AC0F8FF0900F5CF01F00900F5CF9B
:1003D00002F00900F5CF03F00900F5CF04F0000E9C
:1003E000006E041808E10050031805E1960E02188B
:1003F00002E10150000AD8B471D758C0F6FF59C0C5
:10040000F7FF5AC0F8FF0900F5CF01F00900F5CF5A
:1004100002F00900F5CF03F00900F5CF04F0000E5B
:10042000006E041808E10050031805E1E10E0218FF
:1004300002E10150000AD8B456D758C0F6FF59C09F
:10044000F7FF5AC0F8FF0900F5CF01F00900F5CF1A
:1004500002F00900F5CF03F00900F5CF04F00450D5
:10046000000A08E10350010A05E10250C20A02E154
:100470000150000AD8B43CD740D7000E006E1200DD
:1004800021D0CF0EAF6EAC94DCDE6AD0670EAF6EBB
:10049000AC94D7DE65D0CF0EAF6EAC84D2DE60D028
:1004A000670EAF6EAC84CDDE5BD0440EAF6EAC8415
:1004B000C8DE56D0220EAF6EAC84C3DE51D0060E1D
:1004C000006E57D0000E006E581808E10050571803
:1004D00005E1120E561802E15550C00AD2E0000E96
:1004E000006E581808E10050571805E1250E5618FF
:1004F00002E15550800ACAE0000E006E581808E16B
:100500000050571805E14B0E561802E15550000AED
:10051000C2E0000E006E581808E10050571805E1BF
:10052000960E561802E15550000ABAE0000E006E11
:10053000581808E10050571805E1E10E561802E17D
:100540005550000AB2E05850000A08E15750010A1D
:1005500005E15650C20A02E15550000AABE0AFD7A0
:10056000AC0E3D6E010E3E6E5B0E3F6E000E406E99
:04057000006A12000B
:1005740055C058F056C059F057C05AF021D0CF0E8C
:10058400AF6EAC945CDED9D0670EAF6EAC9457DE20
:10059400D4D0CF0EAF6EAC8452DECFD0670EAF6E28
:1005A400AC844DDECAD0440EAF6EAC8448DEC5D0F8
:1005B400220EAF6EAC8443DEC0D0050E006EBFD0F9
:1005C40058C0F6FF59C0F7FF5AC0F8FF0900F5CF2D
:1005D40001F00900F5CF02F00900F5CF03F009009E
:1005E400F5CF04F0000E006E041808E10050031863
:1005F40005E1120E021802E10150C00AC0E058C021
:10060400F6FF59C0F7FF5AC0F8FF0900F5CF01F013
:100614000900F5CF02F00900F5CF03F00900F5CF8A
:1006240004F0000E006E041808E10050031805E100
:10063400250E021802E10150800AA6E058C0F6FF18
:1006440059C0F7FF5AC0F8FF0900F5CF01F00900BF
:10065400F5CF02F00900F5CF03F00900F5CF04F05F
:10066400000E006E041808E10050031805E14B0E5B
:10067400021802E10150000A8CE058C0F6FF59C08C
:10068400F7FF5AC0F8FF0900F5CF01F00900F5CFD4
:1006940002F00900F5CF03F00900F5CF04F0000ED5
:1006A400006E041808E10050031805E1960E0218C4
:1006B40002E10150000AD8B471D758C0F6FF59C0FE
:1006C400F7FF5AC0F8FF0900F5CF01F00900F5CF94
:1006D40002F00900F5CF03F00900F5CF04F0000E95
:1006E400006E041808E10050031805E1E10E021839
:1006F40002E10150000AD8B456D758C0F6FF59C0D9
:10070400F7FF5AC0F8FF0900F5CF01F00900F5CF53
:1007140002F00900F5CF03F00900F5CF04F004500E
:10072400000A08E10350010A05E10250C20A02E18D
:100734000150000AD8B43CD740D7000E006E120016
:1007440021D0CF0EAF6EAC947ADD6AD0670EAF6E57
:10075400AC9475DD65D0CF0EAF6EAC8470DD60D027
:10076400670EAF6EAC846BDD5BD0440EAF6EAC84B1
:1007740066DD56D0220EAF6EAC8461DD51D0060E1C
:10078400006E57D0000E006E581808E1005057183C
:1007940005E1120E561802E15550C00AD2E0000ECF
:1007A400006E581808E10050571805E1250E561838
:1007B40002E15550800ACAE0000E006E581808E1A4
:1007C4000050571805E14B0E561802E15550000A27
:1007D400C2E0000E006E581808E10050571805E1F9
:1007E400960E561802E15550000ABAE0000E006E4B
:1007F400581808E10050571805E1E10E561802E1B7
:100804005550000AB2E05850000A08E15750010A56
:1008140005E15650C20A02E15550000AABE0AFD7D9
:10082400AC0E3D6E010E3E6E5B0E3F6E000E406ED2
:04083400006A120044
:1008380021D0CF0EAF6EAC9400DD6AD0670EAF6EDC
:10084800AC94FBDC65D0CF0EAF6EAC84F6DC60D028
:10085800670EAF6EAC84F1DC5BD0440EAF6EAC8437
:10086800ECDC56D0220EAF6EAC84E7DC51D0060E1D
:10087800006E57D0000E006E581808E10050571847
:1008880005E1120E561802E15550C00AD2E0000EDA
:10089800006E581808E10050571805E1250E561843
:1008A80002E15550800ACAE0000E006E581808E1AF
:1008B8000050571805E14B0E561802E15550000A32
:1008C800C2E0000E006E581808E10050571805E104
:1008D800960E561802E15550000ABAE0000E006E56
:1008E800581808E10050571805E1E10E561802E1C2
:1008F8005550000AB2E05850000A08E15750010A62
:1009080005E15650C20A02E15550000AABE0AFD7E4
:10091800AC0E3D6E010E3E6E5B0E3F6E000E406EDD
:04092800006A12004F
:10092C0038D00F0120870D0E1F6F040E1E6F21850E
:10093C0056DC7DD00F012087060E1F6F820E1E6FB6
:10094C0021854DDC74D00F012087030E1F6F400EE4
:10095C001E6F218544DC6BD00F012087010E1F6FA9
:10096C00A00E1E6F21853BDC62D00F012087010E8B
:10097C001F6F150E1E6F218532DC59D00F01208799
:10098C001F6B8A0E1E6F21852ADC51D0060E006E5D
:10099C0057D0000E006E581808E10050571805E1AA
:1009AC00120E561802E15550C00ABBE0000E006E44
:1009BC00581808E10050571805E1250E561802E1A9
:1009CC005550800AB7E0000E006E581808E1005030
:1009DC00571805E14B0E561802E15550000AB3E0CA
:1009EC00000E006E581808E10050571805E1960EDD
:1009FC00561802E15550000AAFE0000E006E581870
:100A0C0008E10050571805E1E10E561802E1555067
:100A1C00000AABE05850000A08E15750010A05E102
:100A2C005650C20A02E15550000AA8E0AFD77C0E1E
:100A3C003D6E000E3E6E5B0E3F6E000E406E006A09
:020A4C00120096
:060A4E00050E006E12000F
:100A54003FC0E1FF40C0E2FF55C0E9FF56C0EAFFD6
:100A6400EECFE6FF3DC000F03EC001F013DC006AAB
:020A740012006E
:100A760033C0E1FF34C0E2FF55C0E6FF31C000F0ED
:080A860032C001F006DC120091
:100A8E004BD056B002D0929001D092806AD056B020
:100A9E0002D0949001D0948064D056B002D096903B
:100AAE0001D096805ED056B002D0949601D0948636
:100ABE0058D056B002D0949801D0948852D056B0E7
:100ACE0002D0949A01D0948A4CD056B002D094920F
:100ADE0001D0948246D056B002D0939001D093802C
:100AEE0040D056B002D0949E01D0948E3AD056B0DB
:100AFE0002D0949C01D0948C34D056B002D09496EF
:100B0E0001D094862ED056B002D0949801D09488FD
:100B1E0028D0010E006E27D05550000AB2E0555075
:100B2E00010AB5E05550020AB8E05550030ABBE081
:100B3E005550040ABEE05550050AC1E05550060A4C
:100B4E00C4E05550070AC7E05550080ACAE0555090
:100B5E00090ACDE055500A0AD0E055500B0AD3E0F1
:080B6E00D8D7000E006E120042
:100B76004BD056B002D0929201D092826AD056B033
:100B860002D0929801D0928864D056B002D0969244
:100B960001D096825ED056B002D0949601D094864B
:100BA60058D056B002D0949801D0948852D056B0FE
:100BB60002D0949A01D0948A4CD056B002D0949424
:100BC60001D0948446D056B002D0939201D093823D
:100BD60040D056B002D0949E01D0948E3AD056B0F2
:100BE60002D0949C01D0948C34D056B002D0949606
:100BF60001D094862ED056B002D0949801D0948815
:100C060028D0010E006E27D05550000AB2E055508C
:100C1600010AB5E05550020AB8E05550030ABBE098
:100C26005550040ABEE05550050AC1E05550060A63
:100C3600C4E05550070AC7E05550080ACAE05550A7
:100C4600090ACDE055500A0AD0E055500B0AD3E008
:080C5600D8D7000E006E120059
:100C5E0055C0F6FF56C0F7FF57C0F8FF0900F5CF95
:100C6E0031F00900F5CF32F00900F5CF33F009006D
:100C7E00F5CF34F0040E5524F66E000E5620F76EA6
:100C8E00000E5720F86E0900F5CF25F00900F5CFBC
:100C9E0026F00900F5CF27F00900F5CF28F0080E51
:100CAE005524F66E000E5620F76E000E5720F86E85
:100CBE000900F5CF29F00900F5CF2AF00900F5CF8C
:0A0CCE002BF00900F5CF2CF0120006
:100CD80055C0F6FF56C0F7FF57C0F8FF0900F5CF1B
:100CE8002DF00900F5CF2EF00900F5CF2FF00900FF
:100CF800F5CF30F0080E5524F66E000E5620F76E2C
:100D0800000E5720F86E0900F5CF35F00900F5CF31
:100D180036F00900F5CF37F00900F5CF38F0040EAA
:100D28005524F66E000E5620F76E000E5720F86E0A
:100D38000900F5CF21F00900F5CF22F00900F5CF21
:0A0D480023F00900F5CF24F012009B
:100D52004BD056B002D0929401D092846AD056B051
:100D620002D0969601D0968664D056B002D0969460
:100D720001D096845ED056B002D0949601D094866B
:100D820058D056B002D0949801D0948852D056B020
:100D920002D0949A01D0948A4CD056B002D0989046
:100DA20001D0988046D056B002D0939401D093845B
:100DB20040D056B002D0989401D098843AD056B020
:100DC20002D0989201D0988234D056B002D0949634
:100DD20001D094862ED056B002D0949801D0948837
:100DE20028D0010E006E27D05550000AB2E05550AF
:100DF200010AB5E05550020AB8E05550030ABBE0BB
:100E02005550040ABEE05550050AC1E05550060A85
:100E1200C4E05550070AC7E05550080ACAE05550C9
:100E2200090ACDE055500A0AD0E055500B0AD3E02A
:080E3200D8D7000E006E12007B
:100E3A0015D04FC055F050C056F024DE19D04FC01F
:100E4A0055F050C056F092DE13D04FC055F050C046
:100E5A0056F07ADF0DD0010E006E0AD04E50000A0D
:100E6A00E8E04E50010AEBE04E50020AEEE0F3D7FA
:020E7A00120064
:100E7C001DD04FC055F050C056F051C057F0BAECD1
:100E8C0002F01ED04FC055F050C056F051C057F074
:100E9C0058EC01F015D04FC055F050C056F051C071
:100EAC0057F0CFDD0DD0010E006E0AD04E50000A67
:100EBC00E0E04E50010AE6E04E50020AECE0F3D7B7
:020ECC00120012
:100ECE002FC0E1FF30C0E2FF010EE66E2DC000F034
:100EDE002EC001F04CEC01F037C0E1FF38C0E2FF4C
:100EEE00010EE66E35C000F036C001F04CEC01F09C
:100EFE0023C0E1FF24C0E2FF010EE66E21C000F028
:0A0F0E0022C001F04CEC01F01200CB
:100F18004EC051F04FC052F00D0E536E0A0E546E73
:100F280031D051C055F052C056F090DD35D051C087
:100F3800E9FF52C0EAFFEE5208E051C055F052C036
:100F480056F084DD514A522AF2D726D051C0E9FF23
:100F580052C0EAFFEE5208E051C055F052C056F0B8
:100F680075DD514A522AF2D7530E556E000E566E51
:100F78006DDD540E556E000E566E68DD0DD0060EF2
:100F8800006E0BD05050000ACCE05050010ACFE060
:0C0F98005050020ADBE0F3D7006A1200A0
:080FA4004EC055F066DD12009D
:100FAC002DD04FC055F050C056F051C057F052C024
:100FBC0058F0A2EC03F02FD04FC055F050C056F0B3
:100FCC0051C057F052C058F031DC25D04FC055F00D
:100FDC0050C056F051C057F052C058F0A1DC1BD095
:100FEC004FC055F050C056F051C057F052C058F099
:100FFC0040EC02F010D0010E006E0DD04E50000AE5
:10100C00D0E04E50010AD8E04E50020ADFE04E50BC
:08101C00100AE6E0F0D7120013
:1010240051C055F052C056F053C057F016DE4EC0B2
:0E10340055F04FC056F050C057F04CDE120081
:101042004E6A4F6A506AF8DE4E6A010E4F6E506A5F
:10105200F3DE4E6A020E4F6E506AEEDE4E6AE70E05
:101062004F6E110E506E000E516E07DF010E4E6E66
:10107200800E4F6E250E506E000E516E526E95DF31
:10108200090E0B6E1E0E0C6EE40E0D6E0D2EFED7AB
:0C1092000C2EFCD70B2EFAD70000120029
:10109E000900F5CFE6FF0006FBE10106F9E11200BB
:1010AE00720E4E6E110E4F6E000E506ED20E516EAF
:1010BE00110E526E000E536EAEDF02DF150E4E6E27
:1010CE00000E4F6E020E506E20DF090E0B6E1E0EBE
:1010DE000C6EE40E0D6E0D2EFED70C2EFCD70B2EC5
:0610EE00FAD70000120019
:1010F4004D6A090E4D5C11E2DE0E4D24F66E110EA2
:10110400F76E000EF722000EF86E000EF8220900AA
:10111400F5CF4EF045DF4D2AECD7A30E0B6E570EDC
:101124000C6E020E0D6E0D2EFED70C2EFCD70B2E60
:06113400FAD700001200D2
:10113A00490E156E6E0E166E690E176E740E186EC7
:10114A00690E196E610E1A6E6C0E1B6E690E1C6E9C
:10115A007A0E1D6E650E1E6E640E1F6E206A6CDF9F
:08116A00A1DFC3DFFED7FFD7B0
:10117200BA015B00D2015B00C6015B0010015B009B
:10118200EC005B00A4005B008C005B0098005B003D
:10119200DE015B00B0005B0040005B00D4005B003E
:1011A200FFFFFFFFFFFFFFFFFFFFFFFFFFFFFFFF4D
:1011B200FFFFFFFFFFFFFFFFFFFFFFFFFFFFFFFF3D
:1011C200FFFFFFFFFFFFFFFFFFFFFFFFFFFFFFFF2D
:0C11D200AC015B00FFFFFFFFFFFFFFFF11
:0911DE004D696B726F450D0A00AA
:0411E700802500005F
:020000040030CA
:0E00000015137F7CF98B91FFFFC0FFE0FF40DE
:00000001FF
